{
  "_format": "hh-sol-artifact-1",
  "contractName": "e_auction_old",
  "sourceName": "contracts/e_auction_old.sol",
  "abi": [
    {
      "inputs": [
        {
          "internalType": "uint256",
          "name": "",
          "type": "uint256"
        }
      ],
      "name": "auctions",
      "outputs": [
        {
          "internalType": "uint256",
          "name": "id",
          "type": "uint256"
        },
        {
          "internalType": "address payable",
          "name": "seller",
          "type": "address"
        },
        {
          "internalType": "string",
          "name": "name",
          "type": "string"
        },
        {
          "internalType": "string",
          "name": "description",
          "type": "string"
        },
        {
          "internalType": "uint256",
          "name": "min",
          "type": "uint256"
        },
        {
          "internalType": "uint256",
          "name": "bestOfferId",
          "type": "uint256"
        }
      ],
      "stateMutability": "view",
      "type": "function"
    },
    {
      "inputs": [
        {
          "internalType": "string",
          "name": "_name",
          "type": "string"
        },
        {
          "internalType": "string",
          "name": "_desc",
          "type": "string"
        },
        {
          "internalType": "uint256",
          "name": "_min",
          "type": "uint256"
        }
      ],
      "name": "createAuction",
      "outputs": [],
      "stateMutability": "nonpayable",
      "type": "function"
    },
    {
      "inputs": [
        {
          "internalType": "uint256",
          "name": "_auctionId",
          "type": "uint256"
        }
      ],
      "name": "createOffer",
      "outputs": [],
      "stateMutability": "payable",
      "type": "function"
    },
    {
      "inputs": [],
      "name": "getAuctions",
      "outputs": [
        {
          "components": [
            {
              "internalType": "uint256",
              "name": "id",
              "type": "uint256"
            },
            {
              "internalType": "address payable",
              "name": "seller",
              "type": "address"
            },
            {
              "internalType": "string",
              "name": "name",
              "type": "string"
            },
            {
              "internalType": "string",
              "name": "description",
              "type": "string"
            },
            {
              "internalType": "uint256",
              "name": "min",
              "type": "uint256"
            },
            {
              "internalType": "uint256",
              "name": "bestOfferId",
              "type": "uint256"
            },
            {
              "internalType": "uint256[]",
              "name": "offerIds",
              "type": "uint256[]"
            }
          ],
          "internalType": "struct e_auction_old.Auction[]",
          "name": "",
          "type": "tuple[]"
        }
      ],
      "stateMutability": "view",
      "type": "function"
    },
    {
      "inputs": [],
      "name": "getOffers",
      "outputs": [
        {
          "components": [
            {
              "internalType": "uint256",
              "name": "id",
              "type": "uint256"
            },
            {
              "internalType": "uint256",
              "name": "AuctionId",
              "type": "uint256"
            },
            {
              "internalType": "address payable",
              "name": "buyer",
              "type": "address"
            },
            {
              "internalType": "uint256",
              "name": "price",
              "type": "uint256"
            }
          ],
          "internalType": "struct e_auction_old.Offer[]",
          "name": "",
          "type": "tuple[]"
        }
      ],
      "stateMutability": "view",
      "type": "function"
    },
    {
      "inputs": [
        {
          "internalType": "address",
          "name": "_user",
          "type": "address"
        }
      ],
      "name": "getUserAuctions",
      "outputs": [
        {
          "components": [
            {
              "internalType": "uint256",
              "name": "id",
              "type": "uint256"
            },
            {
              "internalType": "address payable",
              "name": "seller",
              "type": "address"
            },
            {
              "internalType": "string",
              "name": "name",
              "type": "string"
            },
            {
              "internalType": "string",
              "name": "description",
              "type": "string"
            },
            {
              "internalType": "uint256",
              "name": "min",
              "type": "uint256"
            },
            {
              "internalType": "uint256",
              "name": "bestOfferId",
              "type": "uint256"
            },
            {
              "internalType": "uint256[]",
              "name": "offerIds",
              "type": "uint256[]"
            }
          ],
          "internalType": "struct e_auction_old.Auction[]",
          "name": "",
          "type": "tuple[]"
        }
      ],
      "stateMutability": "view",
      "type": "function"
    },
    {
      "inputs": [
        {
          "internalType": "address",
          "name": "_user",
          "type": "address"
        }
      ],
      "name": "getUserOffers",
      "outputs": [
        {
          "components": [
            {
              "internalType": "uint256",
              "name": "id",
              "type": "uint256"
            },
            {
              "internalType": "uint256",
              "name": "AuctionId",
              "type": "uint256"
            },
            {
              "internalType": "address payable",
              "name": "buyer",
              "type": "address"
            },
            {
              "internalType": "uint256",
              "name": "price",
              "type": "uint256"
            }
          ],
          "internalType": "struct e_auction_old.Offer[]",
          "name": "",
          "type": "tuple[]"
        }
      ],
      "stateMutability": "view",
      "type": "function"
    },
    {
      "inputs": [
        {
          "internalType": "uint256",
          "name": "",
          "type": "uint256"
        }
      ],
      "name": "offers",
      "outputs": [
        {
          "internalType": "uint256",
          "name": "id",
          "type": "uint256"
        },
        {
          "internalType": "uint256",
          "name": "AuctionId",
          "type": "uint256"
        },
        {
          "internalType": "address payable",
          "name": "buyer",
          "type": "address"
        },
        {
          "internalType": "uint256",
          "name": "price",
          "type": "uint256"
        }
      ],
      "stateMutability": "view",
      "type": "function"
    },
    {
      "inputs": [
        {
          "internalType": "uint256",
          "name": "_auctionId",
          "type": "uint256"
        }
      ],
      "name": "transaction",
      "outputs": [],
      "stateMutability": "nonpayable",
      "type": "function"
    }
  ],
  "bytecode": "0x608060405260016004556001600555348015601957600080fd5b5061216d806100296000396000f3fe6080604052600436106100865760003560e01c80638a72ea6a116100595780638a72ea6a1461015e578063a269993d1461019e578063d7c06919146101ba578063ddf20706146101e5578063ff3ad0b41461020e57610086565b80633ee992ee1461008b57806346bd0841146100b6578063571a26a0146100df578063661d2c2c14610121575b600080fd5b34801561009757600080fd5b506100a061024b565b6040516100ad91906115ed565b60405180910390f35b3480156100c257600080fd5b506100dd60048036038101906100d89190611645565b610395565b005b3480156100eb57600080fd5b5061010660048036038101906101019190611645565b610565565b60405161011896959493929190611720565b60405180910390f35b34801561012d57600080fd5b50610148600480360381019061014391906117cd565b6106d1565b60405161015591906115ed565b60405180910390f35b34801561016a57600080fd5b5061018560048036038101906101809190611645565b61086c565b60405161019594939291906117fa565b60405180910390f35b6101b860048036038101906101b39190611645565b6108bc565b005b3480156101c657600080fd5b506101cf610b08565b6040516101dc9190611aa4565b60405180910390f35b3480156101f157600080fd5b5061020c60048036038101906102079190611b2b565b610dcd565b005b34801561021a57600080fd5b50610235600480360381019061023091906117cd565b61107e565b6040516102429190611aa4565b60405180910390f35b60606000600160055461025e9190611bef565b67ffffffffffffffff81111561027757610276611c23565b5b6040519080825280602002602001820160405280156102b057816020015b61029d611394565b8152602001906001900390816102955790505b5090506000600190505b60055481101561038d576001600082815260200190815260200160002060405180608001604052908160008201548152602001600182015481526020016002820160009054906101000a900473ffffffffffffffffffffffffffffffffffffffff1673ffffffffffffffffffffffffffffffffffffffff1673ffffffffffffffffffffffffffffffffffffffff168152602001600382015481525050826001836103649190611bef565b8151811061037557610374611c52565b5b602002602001018190525080806001019150506102ba565b508091505090565b806000811180156103a7575060045481105b6103e6576040517f08c379a00000000000000000000000000000000000000000000000000000000081526004016103dd90611ccd565b60405180910390fd5b6000806000848152602001908152602001600020905060006001600083600501548152602001908152602001600020905060005b82600601805490508110156104ef57600083600601828154811061044157610440611c52565b5b90600052602060002001549050836005015481146104e15760006001600083815260200190815260200160002090508060020160009054906101000a900473ffffffffffffffffffffffffffffffffffffffff1673ffffffffffffffffffffffffffffffffffffffff166108fc82600301549081150290604051600060405180830381858888f193505050501580156104de573d6000803e3d6000fd5b50505b50808060010191505061041a565b508160010160009054906101000a900473ffffffffffffffffffffffffffffffffffffffff1673ffffffffffffffffffffffffffffffffffffffff166108fc82600301549081150290604051600060405180830381858888f1935050505015801561055e573d6000803e3d6000fd5b5050505050565b60006020528060005260406000206000915090508060000154908060010160009054906101000a900473ffffffffffffffffffffffffffffffffffffffff16908060020180546105b490611d1c565b80601f01602080910402602001604051908101604052809291908181526020018280546105e090611d1c565b801561062d5780601f106106025761010080835404028352916020019161062d565b820191906000526020600020905b81548152906001019060200180831161061057829003601f168201915b50505050509080600301805461064290611d1c565b80601f016020809104026020016040519081016040528092919081815260200182805461066e90611d1c565b80156106bb5780601f10610690576101008083540402835291602001916106bb565b820191906000526020600020905b81548152906001019060200180831161069e57829003601f168201915b5050505050908060040154908060050154905086565b60606000600360008473ffffffffffffffffffffffffffffffffffffffff1673ffffffffffffffffffffffffffffffffffffffff16815260200190815260200160002090506000818054905067ffffffffffffffff81111561073657610735611c23565b5b60405190808252806020026020018201604052801561076f57816020015b61075c611394565b8152602001906001900390816107545790505b50905060005b828054905081101561086157600083828154811061079657610795611c52565b5b906000526020600020015490506001600082815260200190815260200160002060405180608001604052908160008201548152602001600182015481526020016002820160009054906101000a900473ffffffffffffffffffffffffffffffffffffffff1673ffffffffffffffffffffffffffffffffffffffff1673ffffffffffffffffffffffffffffffffffffffff16815260200160038201548152505083838151811061084857610847611c52565b5b6020026020010181905250508080600101915050610775565b508092505050919050565b60016020528060005260406000206000915090508060000154908060010154908060020160009054906101000a900473ffffffffffffffffffffffffffffffffffffffff16908060030154905084565b806000811180156108ce575060045481105b61090d576040517f08c379a000000000000000000000000000000000000000000000000000000000815260040161090490611ccd565b60405180910390fd5b60008060008481526020019081526020016000209050600060016000836005015481526020019081526020016000209050816004015434101580156109555750806003015434115b610994576040517f08c379a000000000000000000000000000000000000000000000000000000000815260040161098b90611dbf565b60405180910390fd5b6005548260050181905550816006016005549080600181540180825580915050600190039060005260206000200160009091909190915055604051806080016040528060055481526020018581526020013373ffffffffffffffffffffffffffffffffffffffff16815260200134815250600160006005548152602001908152602001600020600082015181600001556020820151816001015560408201518160020160006101000a81548173ffffffffffffffffffffffffffffffffffffffff021916908373ffffffffffffffffffffffffffffffffffffffff16021790555060608201518160030155905050600360003373ffffffffffffffffffffffffffffffffffffffff1673ffffffffffffffffffffffffffffffffffffffff168152602001908152602001600020600554908060018154018082558091505060019003906000526020600020016000909190919091505560056000815480929190610afd90611ddf565b919050555050505050565b606060006001600454610b1b9190611bef565b67ffffffffffffffff811115610b3457610b33611c23565b5b604051908082528060200260200182016040528015610b6d57816020015b610b5a6113d2565b815260200190600190039081610b525790505b5090506000600190505b600454811015610dc5576000808281526020019081526020016000206040518060e0016040529081600082015481526020016001820160009054906101000a900473ffffffffffffffffffffffffffffffffffffffff1673ffffffffffffffffffffffffffffffffffffffff1673ffffffffffffffffffffffffffffffffffffffff168152602001600282018054610c0e90611d1c565b80601f0160208091040260200160405190810160405280929190818152602001828054610c3a90611d1c565b8015610c875780601f10610c5c57610100808354040283529160200191610c87565b820191906000526020600020905b815481529060010190602001808311610c6a57829003601f168201915b50505050508152602001600382018054610ca090611d1c565b80601f0160208091040260200160405190810160405280929190818152602001828054610ccc90611d1c565b8015610d195780601f10610cee57610100808354040283529160200191610d19565b820191906000526020600020905b815481529060010190602001808311610cfc57829003601f168201915b50505050508152602001600482015481526020016005820154815260200160068201805480602002602001604051908101604052809291908181526020018280548015610d8557602002820191906000526020600020905b815481526020019060010190808311610d71575b50505050508152505082600183610d9c9190611bef565b81518110610dad57610dac611c52565b5b60200260200101819052508080600101915050610b77565b508091505090565b60008111610e10576040517f08c379a0000000000000000000000000000000000000000000000000000000008152600401610e0790611e99565b60405180910390fd5b60008067ffffffffffffffff811115610e2c57610e2b611c23565b5b604051908082528060200260200182016040528015610e5a5781602001602082028036833780820191505090505b5090506040518060e0016040528060045481526020013373ffffffffffffffffffffffffffffffffffffffff16815260200187878080601f016020809104026020016040519081016040528093929190818152602001838380828437600081840152601f19601f82011690508083019250505050505050815260200185858080601f016020809104026020016040519081016040528093929190818152602001838380828437600081840152601f19601f820116905080830192505050505050508152602001838152602001600081526020018281525060008060045481526020019081526020016000206000820151816000015560208201518160010160006101000a81548173ffffffffffffffffffffffffffffffffffffffff021916908373ffffffffffffffffffffffffffffffffffffffff1602179055506040820151816002019081610fab9190612065565b506060820151816003019081610fc19190612065565b506080820151816004015560a0820151816005015560c0820151816006019080519060200190610ff2929190611425565b50905050600260003373ffffffffffffffffffffffffffffffffffffffff1673ffffffffffffffffffffffffffffffffffffffff16815260200190815260200160002060045490806001815401808255809150506001900390600052602060002001600090919091909150556004600081548092919061107190611ddf565b9190505550505050505050565b60606000600260008473ffffffffffffffffffffffffffffffffffffffff1673ffffffffffffffffffffffffffffffffffffffff16815260200190815260200160002090506000818054905067ffffffffffffffff8111156110e3576110e2611c23565b5b60405190808252806020026020018201604052801561111c57816020015b6111096113d2565b8152602001906001900390816111015790505b50905060005b828054905081101561138957600083828154811061114357611142611c52565b5b906000526020600020015490506000808281526020019081526020016000206040518060e0016040529081600082015481526020016001820160009054906101000a900473ffffffffffffffffffffffffffffffffffffffff1673ffffffffffffffffffffffffffffffffffffffff1673ffffffffffffffffffffffffffffffffffffffff1681526020016002820180546111dd90611d1c565b80601f016020809104026020016040519081016040528092919081815260200182805461120990611d1c565b80156112565780601f1061122b57610100808354040283529160200191611256565b820191906000526020600020905b81548152906001019060200180831161123957829003601f168201915b5050505050815260200160038201805461126f90611d1c565b80601f016020809104026020016040519081016040528092919081815260200182805461129b90611d1c565b80156112e85780601f106112bd576101008083540402835291602001916112e8565b820191906000526020600020905b8154815290600101906020018083116112cb57829003601f168201915b5050505050815260200160048201548152602001600582015481526020016006820180548060200260200160405190810160405280929190818152602001828054801561135457602002820191906000526020600020905b815481526020019060010190808311611340575b5050505050815250508383815181106113705761136f611c52565b5b6020026020010181905250508080600101915050611122565b508092505050919050565b60405180608001604052806000815260200160008152602001600073ffffffffffffffffffffffffffffffffffffffff168152602001600081525090565b6040518060e0016040528060008152602001600073ffffffffffffffffffffffffffffffffffffffff16815260200160608152602001606081526020016000815260200160008152602001606081525090565b828054828255906000526020600020908101928215611461579160200282015b82811115611460578251825591602001919060010190611445565b5b50905061146e9190611472565b5090565b5b8082111561148b576000816000905550600101611473565b5090565b600081519050919050565b600082825260208201905092915050565b6000819050602082019050919050565b6000819050919050565b6114ce816114bb565b82525050565b600073ffffffffffffffffffffffffffffffffffffffff82169050919050565b60006114ff826114d4565b9050919050565b61150f816114f4565b82525050565b60808201600082015161152b60008501826114c5565b50602082015161153e60208501826114c5565b5060408201516115516040850182611506565b50606082015161156460608501826114c5565b50505050565b60006115768383611515565b60808301905092915050565b6000602082019050919050565b600061159a8261148f565b6115a4818561149a565b93506115af836114ab565b8060005b838110156115e05781516115c7888261156a565b97506115d283611582565b9250506001810190506115b3565b5085935050505092915050565b60006020820190508181036000830152611607818461158f565b905092915050565b600080fd5b600080fd5b611622816114bb565b811461162d57600080fd5b50565b60008135905061163f81611619565b92915050565b60006020828403121561165b5761165a61160f565b5b600061166984828501611630565b91505092915050565b61167b816114bb565b82525050565b61168a816114f4565b82525050565b600081519050919050565b600082825260208201905092915050565b60005b838110156116ca5780820151818401526020810190506116af565b60008484015250505050565b6000601f19601f8301169050919050565b60006116f282611690565b6116fc818561169b565b935061170c8185602086016116ac565b611715816116d6565b840191505092915050565b600060c0820190506117356000830189611672565b6117426020830188611681565b818103604083015261175481876116e7565b9050818103606083015261176881866116e7565b90506117776080830185611672565b61178460a0830184611672565b979650505050505050565b600061179a826114d4565b9050919050565b6117aa8161178f565b81146117b557600080fd5b50565b6000813590506117c7816117a1565b92915050565b6000602082840312156117e3576117e261160f565b5b60006117f1848285016117b8565b91505092915050565b600060808201905061180f6000830187611672565b61181c6020830186611672565b6118296040830185611681565b6118366060830184611672565b95945050505050565b600081519050919050565b600082825260208201905092915050565b6000819050602082019050919050565b600082825260208201905092915050565b600061188782611690565b611891818561186b565b93506118a18185602086016116ac565b6118aa816116d6565b840191505092915050565b600081519050919050565b600082825260208201905092915050565b6000819050602082019050919050565b60006118ed83836114c5565b60208301905092915050565b6000602082019050919050565b6000611911826118b5565b61191b81856118c0565b9350611926836118d1565b8060005b8381101561195757815161193e88826118e1565b9750611949836118f9565b92505060018101905061192a565b5085935050505092915050565b600060e08301600083015161197c60008601826114c5565b50602083015161198f6020860182611506565b50604083015184820360408601526119a7828261187c565b915050606083015184820360608601526119c1828261187c565b91505060808301516119d660808601826114c5565b5060a08301516119e960a08601826114c5565b5060c083015184820360c0860152611a018282611906565b9150508091505092915050565b6000611a1a8383611964565b905092915050565b6000602082019050919050565b6000611a3a8261183f565b611a44818561184a565b935083602082028501611a568561185b565b8060005b85811015611a925784840389528151611a738582611a0e565b9450611a7e83611a22565b925060208a01995050600181019050611a5a565b50829750879550505050505092915050565b60006020820190508181036000830152611abe8184611a2f565b905092915050565b600080fd5b600080fd5b600080fd5b60008083601f840112611aeb57611aea611ac6565b5b8235905067ffffffffffffffff811115611b0857611b07611acb565b5b602083019150836001820283011115611b2457611b23611ad0565b5b9250929050565b600080600080600060608688031215611b4757611b4661160f565b5b600086013567ffffffffffffffff811115611b6557611b64611614565b5b611b7188828901611ad5565b9550955050602086013567ffffffffffffffff811115611b9457611b93611614565b5b611ba088828901611ad5565b93509350506040611bb388828901611630565b9150509295509295909350565b7f4e487b7100000000000000000000000000000000000000000000000000000000600052601160045260246000fd5b6000611bfa826114bb565b9150611c05836114bb565b9250828203905081811115611c1d57611c1c611bc0565b5b92915050565b7f4e487b7100000000000000000000000000000000000000000000000000000000600052604160045260246000fd5b7f4e487b7100000000000000000000000000000000000000000000000000000000600052603260045260246000fd5b7f41756374696f6e20446f6573204e6f7420457869737400000000000000000000600082015250565b6000611cb760168361169b565b9150611cc282611c81565b602082019050919050565b60006020820190508181036000830152611ce681611caa565b9050919050565b7f4e487b7100000000000000000000000000000000000000000000000000000000600052602260045260246000fd5b60006002820490506001821680611d3457607f821691505b602082108103611d4757611d46611ced565b5b50919050565b7f4d73672e76616c75652053686f756c642062652047726574686572205468616e60008201527f2062657374204f66666572000000000000000000000000000000000000000000602082015250565b6000611da9602b8361169b565b9150611db482611d4d565b604082019050919050565b60006020820190508181036000830152611dd881611d9c565b9050919050565b6000611dea826114bb565b91507fffffffffffffffffffffffffffffffffffffffffffffffffffffffffffffffff8203611e1c57611e1b611bc0565b5b600182019050919050565b7f4d696e696d756d20416d6f756e742053686f756c64206265204772657468657260008201527f205468616e203000000000000000000000000000000000000000000000000000602082015250565b6000611e8360278361169b565b9150611e8e82611e27565b604082019050919050565b60006020820190508181036000830152611eb281611e76565b9050919050565b60008190508160005260206000209050919050565b60006020601f8301049050919050565b600082821b905092915050565b600060088302611f1b7fffffffffffffffffffffffffffffffffffffffffffffffffffffffffffffffff82611ede565b611f258683611ede565b95508019841693508086168417925050509392505050565b6000819050919050565b6000611f62611f5d611f58846114bb565b611f3d565b6114bb565b9050919050565b6000819050919050565b611f7c83611f47565b611f90611f8882611f69565b848454611eeb565b825550505050565b600090565b611fa5611f98565b611fb0818484611f73565b505050565b5b81811015611fd457611fc9600082611f9d565b600181019050611fb6565b5050565b601f82111561201957611fea81611eb9565b611ff384611ece565b81016020851015612002578190505b61201661200e85611ece565b830182611fb5565b50505b505050565b600082821c905092915050565b600061203c6000198460080261201e565b1980831691505092915050565b6000612055838361202b565b9150826002028217905092915050565b61206e82611690565b67ffffffffffffffff81111561208757612086611c23565b5b6120918254611d1c565b61209c828285611fd8565b600060209050601f8311600181146120cf57600084156120bd578287015190505b6120c78582612049565b86555061212f565b601f1984166120dd86611eb9565b60005b82811015612105578489015182556001820191506020850194506020810190506120e0565b86831015612122578489015161211e601f89168261202b565b8355505b6001600288020188555050505b50505050505056fea2646970667358221220c54edf0e279a49dfacd03f59946923090d49db053434b87b2120ce8bd8502fe364736f6c634300081b0033",
  "linkReferences": {},
  "deployedLinkReferences": {}
}