{
  "_format": "hh-sol-artifact-1",
  "contractName": "e_auction",
  "sourceName": "contracts/e_auction.sol",
  "abi": [
    {
      "inputs": [
        {
          "internalType": "uint256",
          "name": "",
          "type": "uint256"
        }
      ],
      "name": "auctions",
      "outputs": [
        {
          "internalType": "uint256",
          "name": "id",
          "type": "uint256"
        },
        {
          "internalType": "address payable",
          "name": "seller",
          "type": "address"
        },
        {
          "internalType": "string",
          "name": "name",
          "type": "string"
        },
        {
          "internalType": "string",
          "name": "description",
          "type": "string"
        },
        {
          "internalType": "uint256",
          "name": "min",
          "type": "uint256"
        },
        {
          "internalType": "uint256",
          "name": "bestOfferId",
          "type": "uint256"
        },
        {
          "internalType": "uint256",
          "name": "bestOfferPrice",
          "type": "uint256"
        },
        {
          "internalType": "address",
          "name": "winner",
          "type": "address"
        },
        {
          "internalType": "uint256",
          "name": "status",
          "type": "uint256"
        }
      ],
      "stateMutability": "view",
      "type": "function"
    },
    {
      "inputs": [
        {
          "internalType": "uint256",
          "name": "_auctionId",
          "type": "uint256"
        }
      ],
      "name": "closeAuction",
      "outputs": [],
      "stateMutability": "nonpayable",
      "type": "function"
    },
    {
      "inputs": [
        {
          "internalType": "string",
          "name": "_name",
          "type": "string"
        },
        {
          "internalType": "string",
          "name": "_desc",
          "type": "string"
        },
        {
          "internalType": "uint256",
          "name": "_min",
          "type": "uint256"
        }
      ],
      "name": "createAuction",
      "outputs": [],
      "stateMutability": "nonpayable",
      "type": "function"
    },
    {
      "inputs": [
        {
          "internalType": "uint256",
          "name": "_auctionId",
          "type": "uint256"
        }
      ],
      "name": "createOffer",
      "outputs": [],
      "stateMutability": "payable",
      "type": "function"
    },
    {
      "inputs": [],
      "name": "getAuctions",
      "outputs": [
        {
          "components": [
            {
              "internalType": "uint256",
              "name": "id",
              "type": "uint256"
            },
            {
              "internalType": "address payable",
              "name": "seller",
              "type": "address"
            },
            {
              "internalType": "string",
              "name": "name",
              "type": "string"
            },
            {
              "internalType": "string",
              "name": "description",
              "type": "string"
            },
            {
              "internalType": "uint256",
              "name": "min",
              "type": "uint256"
            },
            {
              "internalType": "uint256",
              "name": "bestOfferId",
              "type": "uint256"
            },
            {
              "internalType": "uint256",
              "name": "bestOfferPrice",
              "type": "uint256"
            },
            {
              "internalType": "address",
              "name": "winner",
              "type": "address"
            },
            {
              "internalType": "uint256[]",
              "name": "offerIds",
              "type": "uint256[]"
            },
            {
              "internalType": "uint256",
              "name": "status",
              "type": "uint256"
            }
          ],
          "internalType": "struct e_auction.Auction[]",
          "name": "",
          "type": "tuple[]"
        }
      ],
      "stateMutability": "view",
      "type": "function"
    },
    {
      "inputs": [],
      "name": "getOffers",
      "outputs": [
        {
          "components": [
            {
              "internalType": "uint256",
              "name": "id",
              "type": "uint256"
            },
            {
              "internalType": "uint256",
              "name": "auctionId",
              "type": "uint256"
            },
            {
              "internalType": "address payable",
              "name": "buyer",
              "type": "address"
            },
            {
              "internalType": "bool",
              "name": "isWin",
              "type": "bool"
            },
            {
              "internalType": "uint256",
              "name": "price",
              "type": "uint256"
            }
          ],
          "internalType": "struct e_auction.Offer[]",
          "name": "",
          "type": "tuple[]"
        }
      ],
      "stateMutability": "view",
      "type": "function"
    },
    {
      "inputs": [
        {
          "internalType": "address",
          "name": "_user",
          "type": "address"
        }
      ],
      "name": "getUserAuctions",
      "outputs": [
        {
          "components": [
            {
              "internalType": "uint256",
              "name": "id",
              "type": "uint256"
            },
            {
              "internalType": "address payable",
              "name": "seller",
              "type": "address"
            },
            {
              "internalType": "string",
              "name": "name",
              "type": "string"
            },
            {
              "internalType": "string",
              "name": "description",
              "type": "string"
            },
            {
              "internalType": "uint256",
              "name": "min",
              "type": "uint256"
            },
            {
              "internalType": "uint256",
              "name": "bestOfferId",
              "type": "uint256"
            },
            {
              "internalType": "uint256",
              "name": "bestOfferPrice",
              "type": "uint256"
            },
            {
              "internalType": "address",
              "name": "winner",
              "type": "address"
            },
            {
              "internalType": "uint256[]",
              "name": "offerIds",
              "type": "uint256[]"
            },
            {
              "internalType": "uint256",
              "name": "status",
              "type": "uint256"
            }
          ],
          "internalType": "struct e_auction.Auction[]",
          "name": "",
          "type": "tuple[]"
        }
      ],
      "stateMutability": "view",
      "type": "function"
    },
    {
      "inputs": [
        {
          "internalType": "address",
          "name": "_user",
          "type": "address"
        }
      ],
      "name": "getUserOffers",
      "outputs": [
        {
          "components": [
            {
              "internalType": "uint256",
              "name": "id",
              "type": "uint256"
            },
            {
              "internalType": "uint256",
              "name": "auctionId",
              "type": "uint256"
            },
            {
              "internalType": "address payable",
              "name": "buyer",
              "type": "address"
            },
            {
              "internalType": "bool",
              "name": "isWin",
              "type": "bool"
            },
            {
              "internalType": "uint256",
              "name": "price",
              "type": "uint256"
            }
          ],
          "internalType": "struct e_auction.Offer[]",
          "name": "",
          "type": "tuple[]"
        }
      ],
      "stateMutability": "view",
      "type": "function"
    },
    {
      "inputs": [
        {
          "internalType": "uint256",
          "name": "",
          "type": "uint256"
        }
      ],
      "name": "offers",
      "outputs": [
        {
          "internalType": "uint256",
          "name": "id",
          "type": "uint256"
        },
        {
          "internalType": "uint256",
          "name": "auctionId",
          "type": "uint256"
        },
        {
          "internalType": "address payable",
          "name": "buyer",
          "type": "address"
        },
        {
          "internalType": "bool",
          "name": "isWin",
          "type": "bool"
        },
        {
          "internalType": "uint256",
          "name": "price",
          "type": "uint256"
        }
      ],
      "stateMutability": "view",
      "type": "function"
    },
    {
      "inputs": [
        {
          "internalType": "uint256",
          "name": "_auctionId",
          "type": "uint256"
        }
      ],
      "name": "transaction",
      "outputs": [],
      "stateMutability": "nonpayable",
      "type": "function"
    }
  ],
  "bytecode": "0x608060405260016004556001600555348015601957600080fd5b50612945806100296000396000f3fe6080604052600436106100915760003560e01c80638a72ea6a116100595780638a72ea6a14610195578063a269993d146101d6578063d7c06919146101f2578063ddf207061461021d578063ff3ad0b41461024657610091565b8063236ed8f3146100965780633ee992ee146100bf57806346bd0841146100ea578063571a26a014610113578063661d2c2c14610158575b600080fd5b3480156100a257600080fd5b506100bd60048036038101906100b891906119b2565b610283565b005b3480156100cb57600080fd5b506100d46103d2565b6040516100e19190611b61565b60405180910390f35b3480156100f657600080fd5b50610111600480360381019061010c91906119b2565b610537565b005b34801561011f57600080fd5b5061013a600480360381019061013591906119b2565b6107dc565b60405161014f99989796959493929190611c52565b60405180910390f35b34801561016457600080fd5b5061017f600480360381019061017a9190611d19565b61097a565b60405161018c9190611b61565b60405180910390f35b3480156101a157600080fd5b506101bc60048036038101906101b791906119b2565b610b30565b6040516101cd959493929190611d55565b60405180910390f35b6101f060048036038101906101eb91906119b2565b610b93565b005b3480156101fe57600080fd5b50610207610e58565b604051610214919061205a565b60405180910390f35b34801561022957600080fd5b50610244600480360381019061023f91906120e1565b611188565b005b34801561025257600080fd5b5061026d60048036038101906102689190611d19565b6114c1565b60405161027a919061205a565b60405180910390f35b80600081118015610295575060045481105b6102d4576040517f08c379a00000000000000000000000000000000000000000000000000000000081526004016102cb906121c2565b60405180910390fd5b600080600084815260200190815260200160002090508060010160009054906101000a900473ffffffffffffffffffffffffffffffffffffffff1673ffffffffffffffffffffffffffffffffffffffff163373ffffffffffffffffffffffffffffffffffffffff161461037c576040517f08c379a000000000000000000000000000000000000000000000000000000000815260040161037390612254565b60405180910390fd5b60018160090154146103c3576040517f08c379a00000000000000000000000000000000000000000000000000000000081526004016103ba906122e6565b60405180910390fd5b60028160090181905550505050565b6060600060016005546103e59190612335565b67ffffffffffffffff8111156103fe576103fd612369565b5b60405190808252806020026020018201604052801561043757816020015b610424611842565b81526020019060019003908161041c5790505b5090506000600190505b60055481101561052f57600160008281526020019081526020016000206040518060a001604052908160008201548152602001600182015481526020016002820160009054906101000a900473ffffffffffffffffffffffffffffffffffffffff1673ffffffffffffffffffffffffffffffffffffffff1673ffffffffffffffffffffffffffffffffffffffff1681526020016002820160149054906101000a900460ff16151515158152602001600382015481525050826001836105069190612335565b8151811061051757610516612398565b5b60200260200101819052508080600101915050610441565b508091505090565b80600081118015610549575060045481105b610588576040517f08c379a000000000000000000000000000000000000000000000000000000000815260040161057f906121c2565b60405180910390fd5b6000806000848152602001908152602001600020905060028160090154146105e5576040517f08c379a00000000000000000000000000000000000000000000000000000000081526004016105dc90612439565b60405180910390fd5b60006001600083600501548152602001908152602001600020905060018160020160146101000a81548160ff02191690831515021790555060005b82600801805490508110156106f557600083600801828154811061064757610646612398565b5b90600052602060002001549050836005015481146106e75760006001600083815260200190815260200160002090508060020160009054906101000a900473ffffffffffffffffffffffffffffffffffffffff1673ffffffffffffffffffffffffffffffffffffffff166108fc82600301549081150290604051600060405180830381858888f193505050501580156106e4573d6000803e3d6000fd5b50505b508080600101915050610620565b508160010160009054906101000a900473ffffffffffffffffffffffffffffffffffffffff1673ffffffffffffffffffffffffffffffffffffffff166108fc82600301549081150290604051600060405180830381858888f19350505050158015610764573d6000803e3d6000fd5b50600382600901819055508060020160009054906101000a900473ffffffffffffffffffffffffffffffffffffffff168260070160006101000a81548173ffffffffffffffffffffffffffffffffffffffff021916908373ffffffffffffffffffffffffffffffffffffffff16021790555050505050565b60006020528060005260406000206000915090508060000154908060010160009054906101000a900473ffffffffffffffffffffffffffffffffffffffff169080600201805461082b90612488565b80601f016020809104026020016040519081016040528092919081815260200182805461085790612488565b80156108a45780601f10610879576101008083540402835291602001916108a4565b820191906000526020600020905b81548152906001019060200180831161088757829003601f168201915b5050505050908060030180546108b990612488565b80601f01602080910402602001604051908101604052809291908181526020018280546108e590612488565b80156109325780601f1061090757610100808354040283529160200191610932565b820191906000526020600020905b81548152906001019060200180831161091557829003601f168201915b5050505050908060040154908060050154908060060154908060070160009054906101000a900473ffffffffffffffffffffffffffffffffffffffff16908060090154905089565b60606000600360008473ffffffffffffffffffffffffffffffffffffffff1673ffffffffffffffffffffffffffffffffffffffff16815260200190815260200160002090506000818054905067ffffffffffffffff8111156109df576109de612369565b5b604051908082528060200260200182016040528015610a1857816020015b610a05611842565b8152602001906001900390816109fd5790505b50905060005b8280549050811015610b25576000838281548110610a3f57610a3e612398565b5b90600052602060002001549050600160008281526020019081526020016000206040518060a001604052908160008201548152602001600182015481526020016002820160009054906101000a900473ffffffffffffffffffffffffffffffffffffffff1673ffffffffffffffffffffffffffffffffffffffff1673ffffffffffffffffffffffffffffffffffffffff1681526020016002820160149054906101000a900460ff16151515158152602001600382015481525050838381518110610b0c57610b0b612398565b5b6020026020010181905250508080600101915050610a1e565b508092505050919050565b60016020528060005260406000206000915090508060000154908060010154908060020160009054906101000a900473ffffffffffffffffffffffffffffffffffffffff16908060020160149054906101000a900460ff16908060030154905085565b80600081118015610ba5575060045481105b610be4576040517f08c379a0000000000000000000000000000000000000000000000000000000008152600401610bdb906121c2565b60405180910390fd5b600080600084815260200190815260200160002090506001816009015414610c41576040517f08c379a0000000000000000000000000000000000000000000000000000000008152600401610c3890612505565b60405180910390fd5b60006001600083600501548152602001908152602001600020905081600401543410158015610c735750806003015434115b610cb2576040517f08c379a0000000000000000000000000000000000000000000000000000000008152600401610ca990612597565b60405180910390fd5b60055482600501819055503482600601819055508160080160055490806001815401808255809150506001900390600052602060002001600090919091909150556040518060a0016040528060055481526020018581526020013373ffffffffffffffffffffffffffffffffffffffff16815260200160001515815260200134815250600160006005548152602001908152602001600020600082015181600001556020820151816001015560408201518160020160006101000a81548173ffffffffffffffffffffffffffffffffffffffff021916908373ffffffffffffffffffffffffffffffffffffffff16021790555060608201518160020160146101000a81548160ff02191690831515021790555060808201518160030155905050600360003373ffffffffffffffffffffffffffffffffffffffff1673ffffffffffffffffffffffffffffffffffffffff168152602001908152602001600020600554908060018154018082558091505060019003906000526020600020016000909190919091505560056000815480929190610e4d906125b7565b919050555050505050565b606060006001600454610e6b9190612335565b67ffffffffffffffff811115610e8457610e83612369565b5b604051908082528060200260200182016040528015610ebd57816020015b610eaa611889565b815260200190600190039081610ea25790505b5090506000600190505b6004548110156111805760008082815260200190815260200160002060405180610140016040529081600082015481526020016001820160009054906101000a900473ffffffffffffffffffffffffffffffffffffffff1673ffffffffffffffffffffffffffffffffffffffff1673ffffffffffffffffffffffffffffffffffffffff168152602001600282018054610f5f90612488565b80601f0160208091040260200160405190810160405280929190818152602001828054610f8b90612488565b8015610fd85780601f10610fad57610100808354040283529160200191610fd8565b820191906000526020600020905b815481529060010190602001808311610fbb57829003601f168201915b50505050508152602001600382018054610ff190612488565b80601f016020809104026020016040519081016040528092919081815260200182805461101d90612488565b801561106a5780601f1061103f5761010080835404028352916020019161106a565b820191906000526020600020905b81548152906001019060200180831161104d57829003601f168201915b505050505081526020016004820154815260200160058201548152602001600682015481526020016007820160009054906101000a900473ffffffffffffffffffffffffffffffffffffffff1673ffffffffffffffffffffffffffffffffffffffff1673ffffffffffffffffffffffffffffffffffffffff1681526020016008820180548060200260200160405190810160405280929190818152602001828054801561113657602002820191906000526020600020905b815481526020019060010190808311611122575b50505050508152602001600982015481525050826001836111579190612335565b8151811061116857611167612398565b5b60200260200101819052508080600101915050610ec7565b508091505090565b600081116111cb576040517f08c379a00000000000000000000000000000000000000000000000000000000081526004016111c290612671565b60405180910390fd5b60008067ffffffffffffffff8111156111e7576111e6612369565b5b6040519080825280602002602001820160405280156112155781602001602082028036833780820191505090505b50905060405180610140016040528060045481526020013373ffffffffffffffffffffffffffffffffffffffff16815260200187878080601f016020809104026020016040519081016040528093929190818152602001838380828437600081840152601f19601f82011690508083019250505050505050815260200185858080601f016020809104026020016040519081016040528093929190818152602001838380828437600081840152601f19601f82011690508083019250505050505050815260200183815260200160008152602001600081526020013373ffffffffffffffffffffffffffffffffffffffff168152602001828152602001600181525060008060045481526020019081526020016000206000820151816000015560208201518160010160006101000a81548173ffffffffffffffffffffffffffffffffffffffff021916908373ffffffffffffffffffffffffffffffffffffffff1602179055506040820151816002019081611391919061283d565b5060608201518160030190816113a7919061283d565b506080820151816004015560a0820151816005015560c0820151816006015560e08201518160070160006101000a81548173ffffffffffffffffffffffffffffffffffffffff021916908373ffffffffffffffffffffffffffffffffffffffff16021790555061010082015181600801908051906020019061142a929190611908565b506101208201518160090155905050600260003373ffffffffffffffffffffffffffffffffffffffff1673ffffffffffffffffffffffffffffffffffffffff1681526020019081526020016000206004549080600181540180825580915050600190039060005260206000200160009091909190915055600460008154809291906114b4906125b7565b9190505550505050505050565b60606000600260008473ffffffffffffffffffffffffffffffffffffffff1673ffffffffffffffffffffffffffffffffffffffff16815260200190815260200160002090506000818054905067ffffffffffffffff81111561152657611525612369565b5b60405190808252806020026020018201604052801561155f57816020015b61154c611889565b8152602001906001900390816115445790505b50905060005b828054905081101561183757600083828154811061158657611585612398565b5b9060005260206000200154905060008082815260200190815260200160002060405180610140016040529081600082015481526020016001820160009054906101000a900473ffffffffffffffffffffffffffffffffffffffff1673ffffffffffffffffffffffffffffffffffffffff1673ffffffffffffffffffffffffffffffffffffffff16815260200160028201805461162190612488565b80601f016020809104026020016040519081016040528092919081815260200182805461164d90612488565b801561169a5780601f1061166f5761010080835404028352916020019161169a565b820191906000526020600020905b81548152906001019060200180831161167d57829003601f168201915b505050505081526020016003820180546116b390612488565b80601f01602080910402602001604051908101604052809291908181526020018280546116df90612488565b801561172c5780601f106117015761010080835404028352916020019161172c565b820191906000526020600020905b81548152906001019060200180831161170f57829003601f168201915b505050505081526020016004820154815260200160058201548152602001600682015481526020016007820160009054906101000a900473ffffffffffffffffffffffffffffffffffffffff1673ffffffffffffffffffffffffffffffffffffffff1673ffffffffffffffffffffffffffffffffffffffff168152602001600882018054806020026020016040519081016040528092919081815260200182805480156117f857602002820191906000526020600020905b8154815260200190600101908083116117e4575b5050505050815260200160098201548152505083838151811061181e5761181d612398565b5b6020026020010181905250508080600101915050611565565b508092505050919050565b6040518060a001604052806000815260200160008152602001600073ffffffffffffffffffffffffffffffffffffffff168152602001600015158152602001600081525090565b60405180610140016040528060008152602001600073ffffffffffffffffffffffffffffffffffffffff1681526020016060815260200160608152602001600081526020016000815260200160008152602001600073ffffffffffffffffffffffffffffffffffffffff16815260200160608152602001600081525090565b828054828255906000526020600020908101928215611944579160200282015b82811115611943578251825591602001919060010190611928565b5b5090506119519190611955565b5090565b5b8082111561196e576000816000905550600101611956565b5090565b600080fd5b600080fd5b6000819050919050565b61198f8161197c565b811461199a57600080fd5b50565b6000813590506119ac81611986565b92915050565b6000602082840312156119c8576119c7611972565b5b60006119d68482850161199d565b91505092915050565b600081519050919050565b600082825260208201905092915050565b6000819050602082019050919050565b611a148161197c565b82525050565b600073ffffffffffffffffffffffffffffffffffffffff82169050919050565b6000611a4582611a1a565b9050919050565b611a5581611a3a565b82525050565b60008115159050919050565b611a7081611a5b565b82525050565b60a082016000820151611a8c6000850182611a0b565b506020820151611a9f6020850182611a0b565b506040820151611ab26040850182611a4c565b506060820151611ac56060850182611a67565b506080820151611ad86080850182611a0b565b50505050565b6000611aea8383611a76565b60a08301905092915050565b6000602082019050919050565b6000611b0e826119df565b611b1881856119ea565b9350611b23836119fb565b8060005b83811015611b54578151611b3b8882611ade565b9750611b4683611af6565b925050600181019050611b27565b5085935050505092915050565b60006020820190508181036000830152611b7b8184611b03565b905092915050565b611b8c8161197c565b82525050565b611b9b81611a3a565b82525050565b600081519050919050565b600082825260208201905092915050565b60005b83811015611bdb578082015181840152602081019050611bc0565b60008484015250505050565b6000601f19601f8301169050919050565b6000611c0382611ba1565b611c0d8185611bac565b9350611c1d818560208601611bbd565b611c2681611be7565b840191505092915050565b6000611c3c82611a1a565b9050919050565b611c4c81611c31565b82525050565b600061012082019050611c68600083018c611b83565b611c75602083018b611b92565b8181036040830152611c87818a611bf8565b90508181036060830152611c9b8189611bf8565b9050611caa6080830188611b83565b611cb760a0830187611b83565b611cc460c0830186611b83565b611cd160e0830185611c43565b611cdf610100830184611b83565b9a9950505050505050505050565b611cf681611c31565b8114611d0157600080fd5b50565b600081359050611d1381611ced565b92915050565b600060208284031215611d2f57611d2e611972565b5b6000611d3d84828501611d04565b91505092915050565b611d4f81611a5b565b82525050565b600060a082019050611d6a6000830188611b83565b611d776020830187611b83565b611d846040830186611b92565b611d916060830185611d46565b611d9e6080830184611b83565b9695505050505050565b600081519050919050565b600082825260208201905092915050565b6000819050602082019050919050565b600082825260208201905092915050565b6000611df082611ba1565b611dfa8185611dd4565b9350611e0a818560208601611bbd565b611e1381611be7565b840191505092915050565b611e2781611c31565b82525050565b600081519050919050565b600082825260208201905092915050565b6000819050602082019050919050565b6000611e658383611a0b565b60208301905092915050565b6000602082019050919050565b6000611e8982611e2d565b611e938185611e38565b9350611e9e83611e49565b8060005b83811015611ecf578151611eb68882611e59565b9750611ec183611e71565b925050600181019050611ea2565b5085935050505092915050565b600061014083016000830151611ef56000860182611a0b565b506020830151611f086020860182611a4c565b5060408301518482036040860152611f208282611de5565b91505060608301518482036060860152611f3a8282611de5565b9150506080830151611f4f6080860182611a0b565b5060a0830151611f6260a0860182611a0b565b5060c0830151611f7560c0860182611a0b565b5060e0830151611f8860e0860182611e1e565b50610100830151848203610100860152611fa28282611e7e565b915050610120830151611fb9610120860182611a0b565b508091505092915050565b6000611fd08383611edc565b905092915050565b6000602082019050919050565b6000611ff082611da8565b611ffa8185611db3565b93508360208202850161200c85611dc4565b8060005b8581101561204857848403895281516120298582611fc4565b945061203483611fd8565b925060208a01995050600181019050612010565b50829750879550505050505092915050565b600060208201905081810360008301526120748184611fe5565b905092915050565b600080fd5b600080fd5b600080fd5b60008083601f8401126120a1576120a061207c565b5b8235905067ffffffffffffffff8111156120be576120bd612081565b5b6020830191508360018202830111156120da576120d9612086565b5b9250929050565b6000806000806000606086880312156120fd576120fc611972565b5b600086013567ffffffffffffffff81111561211b5761211a611977565b5b6121278882890161208b565b9550955050602086013567ffffffffffffffff81111561214a57612149611977565b5b6121568882890161208b565b935093505060406121698882890161199d565b9150509295509295909350565b7f41756374696f6e20646f6573206e6f7420657869737400000000000000000000600082015250565b60006121ac601683611bac565b91506121b782612176565b602082019050919050565b600060208201905081810360008301526121db8161219f565b9050919050565b7f4f6e6c79207468652073656c6c65722063616e20636c6f73652074686520617560008201527f6374696f6e000000000000000000000000000000000000000000000000000000602082015250565b600061223e602583611bac565b9150612249826121e2565b604082019050919050565b6000602082019050818103600083015261226d81612231565b9050919050565b7f41756374696f6e20697320616c726561647920636c6f736564206f7220636f6d60008201527f706c657465640000000000000000000000000000000000000000000000000000602082015250565b60006122d0602683611bac565b91506122db82612274565b604082019050919050565b600060208201905081810360008301526122ff816122c3565b9050919050565b7f4e487b7100000000000000000000000000000000000000000000000000000000600052601160045260246000fd5b60006123408261197c565b915061234b8361197c565b925082820390508181111561236357612362612306565b5b92915050565b7f4e487b7100000000000000000000000000000000000000000000000000000000600052604160045260246000fd5b7f4e487b7100000000000000000000000000000000000000000000000000000000600052603260045260246000fd5b7f41756374696f6e206973206e6f7420726561647920666f72207472616e73666560008201527f7200000000000000000000000000000000000000000000000000000000000000602082015250565b6000612423602183611bac565b915061242e826123c7565b604082019050919050565b6000602082019050818103600083015261245281612416565b9050919050565b7f4e487b7100000000000000000000000000000000000000000000000000000000600052602260045260246000fd5b600060028204905060018216806124a057607f821691505b6020821081036124b3576124b2612459565b5b50919050565b7f41756374696f6e206973206e6f74206163746976650000000000000000000000600082015250565b60006124ef601583611bac565b91506124fa826124b9565b602082019050919050565b6000602082019050818103600083015261251e816124e2565b9050919050565b7f426964206d75737420626520686967686572207468616e2063757272656e742060008201527f62657374206f6666657200000000000000000000000000000000000000000000602082015250565b6000612581602a83611bac565b915061258c82612525565b604082019050919050565b600060208201905081810360008301526125b081612574565b9050919050565b60006125c28261197c565b91507fffffffffffffffffffffffffffffffffffffffffffffffffffffffffffffffff82036125f4576125f3612306565b5b600182019050919050565b7f4d696e696d756d20416d6f756e742053686f756c64206265204772656174657260008201527f205468616e203000000000000000000000000000000000000000000000000000602082015250565b600061265b602783611bac565b9150612666826125ff565b604082019050919050565b6000602082019050818103600083015261268a8161264e565b9050919050565b60008190508160005260206000209050919050565b60006020601f8301049050919050565b600082821b905092915050565b6000600883026126f37fffffffffffffffffffffffffffffffffffffffffffffffffffffffffffffffff826126b6565b6126fd86836126b6565b95508019841693508086168417925050509392505050565b6000819050919050565b600061273a6127356127308461197c565b612715565b61197c565b9050919050565b6000819050919050565b6127548361271f565b61276861276082612741565b8484546126c3565b825550505050565b600090565b61277d612770565b61278881848461274b565b505050565b5b818110156127ac576127a1600082612775565b60018101905061278e565b5050565b601f8211156127f1576127c281612691565b6127cb846126a6565b810160208510156127da578190505b6127ee6127e6856126a6565b83018261278d565b50505b505050565b600082821c905092915050565b6000612814600019846008026127f6565b1980831691505092915050565b600061282d8383612803565b9150826002028217905092915050565b61284682611ba1565b67ffffffffffffffff81111561285f5761285e612369565b5b6128698254612488565b6128748282856127b0565b600060209050601f8311600181146128a75760008415612895578287015190505b61289f8582612821565b865550612907565b601f1984166128b586612691565b60005b828110156128dd578489015182556001820191506020850194506020810190506128b8565b868310156128fa57848901516128f6601f891682612803565b8355505b6001600288020188555050505b50505050505056fea26469706673582212205fb5a568eb9f11532c155d7183b1af870b54bc5b20a56cf0073dd189622ff0b564736f6c634300081b0033",
  "linkReferences": {},
  "deployedLinkReferences": {}
}